:020000040000FA
:1000000020100020D5000000EF000000376B00003A
:1000100000000000000000000000000000000000E0
:10002000000000000000000000000000F3000000DD
:100030000000000000000000F5000000F7000000D4
:10004000236C00002D6C0000376C0000416C000038
:100050004B6C0000556C00005F6C0000696C000088
:10006000736C00007D6C0000876C0000916C0000D8
:100070009B6C0000A56C0000AF6C0000B96C000028
:10008000C36C0000CD6C0000D76C0000E16C000078
:10009000EB6C0000F56C0000FF6C0000096D0000C7
:1000A000136D00001D6D0000276D0000316D000014
:1000B0003B6D0000456D00004F6D0000596D000064
:1000C0000348854600F0A6F9004800474D96000019
:1000D0002010002009480A4A002100A1814200D9CD
:1000E0000244084802600848804708480047FEE785
:1000F000FEE7FEE7FEE7FEE7FEE700000000002067
:100100000000000008ED00E085830000C100000051
:1001100030B50B46014600202022012409E00D469F
:10012000D5409D4205D31D469540491B2546954027
:1001300040191546521E002DF1DC30BD70B500246B
:100140002546002801DA01244042002901DA012570
:100150004942FFF7DDFFAC4200D04042002C00D006
:10016000494270BD03460B439B0703D009E008C911
:10017000121F08C0042AFAD203E00B780370401C57
:10018000491C521EF9D27047F8B502464A40D40FB6
:1001900042004B0052085B089A4202D202460846CF
:1001A00011464A0023D0C30D4A00DDB2120EAD1A2B
:1001B000202D35DA49020126490AF6058A19002C54
:1001C00000D0524220214F1B1146B9402A4110183D
:1001D000C20D9A4221D0002C17D0012D08DCDA057F
:1001E000801AD20F8019D207DBB200F0D9F8F8BD1F
:1001F000DA05801A012340001B06C01880185A42F5
:100200008018CA0F1043490007E04908C20711438C
:10021000DA05801A80194008801800F0B9F8F8BD96
:1002200061000122511A001BF7E70122D207514059
:10023000AAE70122D2075040A6E7024670B54A401D
:10024000D30FDB0740002DD04A002AD0010E140E38
:10025000000212020919400A520A8418E5010446F4
:100260005443000A120A2E045043A4194219200CC8
:10027000C543AA18120C0125AD03521C52191204D1
:100280007F39240400D0521C104301D44000491E81
:10029000C2B20C06C0092018401C4008802A02D0B7
:1002A00003E0002070BD40084000002900DA002073
:1002B000184370BD70B502464A40D50F40004A0051
:1002C000ED0740085208002814D0002A12D0C40DAF
:1002D000D30D41020120C0055202490A520AE41A14
:1002E000091812187D34914201D3641C00E04900C2
:1002F000002C01DA002070BD0023914201D3891A3D
:100300000343400849000028F7D100290AD0914250
:1003100002D10121C90705E0914201D2012101E08A
:100320000121C943E005C018401900F031F870BD43
:1003300010B500229623114600F032F810BD41009E
:1003400040020122400AD205090E80187F2901DAF5
:1003500000207047962903DC9622511AC840704746
:1003600096398840704700000122D207002800DB40
:10037000101A002900DB511A814270470122D2076E
:10038000002800DB101A002900DB511A8842704750
:10039000002904DA401C490001D1400840007047A0
:1003A00070B40024050C05D11024000402D10029EA
:1003B00021D01124050E01D100020834050F01D10E
:1003C0000001241D850F01D18000A41C002801DB41
:1003D0004000641C002908D020252E1B0D46F54046
:1003E000A14000D001212943084301061B1B000A3C
:1003F000DB1D02D5002070BC7047DB051818801883
:100400000029F8DA401C4900F5D170BC40084000D2
:1004100070470000064C0125064E05E0E36807CC56
:100420002B430C3C98471034B442F7D3FFF74CFEF3
:10043000E89600000897000070B58C180578401CFD
:100440006B075B0F01D10378401C2A1106D102789B
:10045000401C03E006780E70401C491C5B1EF9D15D
:100460002B0705D40023521E0DD40B70491CFAE74C
:100470000378401CCB1A921C03E01D780D70491CB8
:100480005B1C521EF9D5A142D8D3002070BD0000DC
:1004900000B58FB001211C2007F0EAFE01211D20CC
:1004A00007F0E6FE0121102007F0E2FE05210DA86D
:1004B00008F0F2FF182107A808F0EEFF022106A8B5
:1004C00008F0EAFF0521684608F0E6FF102102A8BF
:1004D00008F0E2FF0421002006F098FA01216846A6
:1004E00001706A460421002006F0E0F90221002094
:1004F00006F08CFA0121684601706A46022100204C
:1005000006F0D4F90521002006F080FA01216846A2
:1005100001706A460521002006F0C8F900F03EFA95
:100520003948006840084000401C374908600846C8
:1005300000680221884334490860642001F05DF8B6
:10054000012108A801750221417501210176C175BB
:10055000032181750DA800F02BFA012000F07AFA32
:100560000421002000F0FEF80221012000F0FAF83A
:100570000521022000F0F6F81B21032000F0F2F81C
:10058000002204210DA800F0C9F9012000F0D2F8E2
:100590000021684601770421C183012101840221E1
:1005A00008A881700021C170017101218171417120
:1005B000C171154850300A9014480B9008A8017476
:1005C0002521417407A9002001F046F9002001F01F
:1005D000A9F801220321042006F010F80121684641
:1005E00041760B48029002AA06A9002001F038F8D3
:1005F00001F06CF8002001F075F8002001F078FAA5
:1006000000F01EFA0FB000BD00240040D40C002002
:100610005516000070B500243C480078012874D1BC
:1006200000203A4908703A490968FA2251430846BD
:10063000FFF77EFE044637492046FFF73BFE04469F
:1006400035492046FFF7F9FD04462046FFF777FEBF
:1006500085B22946314807F079FC2D494968304A6E
:1006600051430846FFF764FE05462A49FFF722FE7C
:1006700004462046FFF763FE86B23046FFF758FE79
:1006800005462946274807F00BFC21498968244A7A
:10069000514308462449FFF73BFD0546FFF748FE56
:1006A00004462046FFF74BFE85B229461F4807F057
:1006B0004DFC05F0EDFF1649C968194A51434A003F
:1006C0008818FFF735FE05461249FFF7F3FD04468B
:1006D0002046FFF734FE86B23046FFF729FE054676
:1006E000294610481C3807F0DBFB0E481C38007EFA
:1006F000002805DD00200B491C39087607F082FB35
:1007000000F09EF901200A49087070BDF600002033
:10071000D40C002000F07F45000078428C0C0020B3
:10072000C4090000280D0020FF0F0000BC0C0020B1
:10073000F70000200146002908D1094880680122FD
:10074000520290438018064A906007E0044880688F
:10075000FF22013290438018014A906000207047C8
:100760000024004010B50246130008F08FFD100968
:1007700013202D3A47545E6B7885929FA9B6C3D05B
:100780006548006840094001CB06DB0E1843624B08
:100790001860BDE0604800681F235B0198434B016F
:1007A0001F246401234018435B4B1860B0E05A4893
:1007B00000681F239B0298438B021F24A40223403E
:1007C0001843554B1860A3E0534800681F23DB0310
:1007D0009843CB031F24E403234018434E4B186077
:1007E00096E04D4800681F231B0598430B051F2406
:1007F000240523401843484B186089E046480068A8
:100800001F235B0698434B061F24640623401843AE
:10081000414B18607CE04048406840094001CB06ED
:10082000DB0E18433C4B586072E03B4840681F2386
:100830005B0198434B011F24640123401843364B4E
:10084000586065E0344840681F239B0298438B0240
:100850001F24A402234018432F4B586058E02E4811
:1008600040681F23DB039843CB031F24E40323408A
:100870001843294B58604BE0274840681F231B054D
:1008800098430B051F24240523401843224B58602E
:100890003EE0214840681F235B0698434B061F2417
:1008A0006406234018431C4B586031E01A488068A6
:1008B00040094001CB06DB0E1843174B986027E038
:1008C000154880681F235B0198434B011F24640176
:1008D00023401843104B98601AE00F4880681F238C
:1008E0009B0298438B021F24A402234018430A4B07
:1008F00098600DE0084880681F23DB039843CB0312
:100900001F24E40323401843034B986000E000BF1A
:1009100000BF002010BD00004024004030B5034659
:10092000002B01D1042030BD1B4880680124A402A3
:10093000A0431C78A4020125AD022C402043164C94
:10094000A06020468068E413A043134CA0602046BA
:100950008068E414A043D4026D002C4020430E4C68
:10096000A060002A06D020468068E413A043001946
:10097000094CA0600848403080680F242405A0433B
:100980004C1E24050F252D052C402043024C4034DD
:10099000A0600020C7E70000002400400348406832
:1009A00040084000401C0149486070470024004056
:1009B0000146002901D104207047204840680C22DC
:1009C00090434A7892000C231A4010431B4A50600F
:1009D000104640689A0290438A7812039B021A409C
:1009E0001043164A506010464068DA109043CA78A7
:1009F0005202DB101A401043104A50601046406803
:100A0000D21490430A79D2020123DB021A40104328
:100A10000A4A50601046806812149043074A90605A
:100A20001046806852149043044A906010468068D3
:100A300092149043014A90600020BDE700240040DA
:100A40000348406840084000401C01494860704726
:100A5000C02400400146032901DD0420704700291D
:100A600001D0012908D10F48406801229203904328
:100A700080180C4A506006E00A4840680122920340
:100A80009043084A5060074840680322520290434E
:100A90004A0203235B021A401043024A50600020BE
:100AA000DCE700000024004010B50446204608F0B2
:100AB000FBFB2046002805DBC206D20E0121914037
:100AC000034A116000BF0321204608F035FC10BD29
:100AD00000E100E070B503460C469802724D4119E2
:100AE000022B01DC002A01D1042070BD002C02D0B1
:100AF000012C7DD165E0886D400840001578ED0738
:100B0000ED0F28438865886D0225A84355796D004F
:100B10000226354028438865886D0425A8439579C9
:100B2000AD000426354028438865886D0825A84314
:100B30001579ED000826354028438865886D3025F5
:100B4000A843D5782D013026354028438865886D27
:100B5000C025A8439578AD01C02635402843886557
:100B6000886DFF250135A84355782D02FF260136F3
:100B7000354028438865886D03256D02A843157AA2
:100B80006D0203267602354028438865886DB500DE
:100B9000A843D579ED02B600354028438865886EB4
:100BA00040084000557AED07ED0F28438866886EAF
:100BB0000625A843957A6D000626354028438866A9
:100BC0006FE0886D01252D04A84315782D040126BA
:100BD0003604354028438865886D7500A8435579EB
:100BE0006D047600354028438865886D750000E007
:100BF00055E0A8439579AD047600354028438865D3
:100C0000886D7500A8431579ED04760035402843BA
:100C10008865886D03252D05A843D5782D05032605
:100C20003605354028438865886DB500A84395781A
:100C3000AD05B600354028438865886D01252D0631
:100C4000A84355782D060126360635402843886589
:100C5000886D03256D06A843157A6D060326760672
:100C6000354028438865886DB500A843D579ED06E1
:100C7000B600354028438865886E1025A843557A0C
:100C80002D011026354028438866886E6025A843CC
:100C9000957A6D01602635402843886601E004207E
:100CA00023E700BF002020E700300040F8B50646EB
:100CB0000C46B0021D494518022E01DC002C01D162
:100CC0000420F8BD2078052801DD0420F9E7286D0F
:100CD0000E218843217849000E22114008432865DF
:100CE000286DFF210131884361780902FF2201321A
:100CF000114008432865286D70218843A1780901B7
:100D00007022114008432865002706E00020B10149
:100D1000074A8918BA0088507F1C102FF6DB31462D
:100D2000123148B2FFF7C0FE0020CAE70030004091
:100D30005C0D002030B50446A0020D4D4319022C75
:100D400001DD042030BD002901D11A610DE0012927
:100D500001D15A6109E0022901D19A6105E0032914
:100D600001D1DA6101E00420ECE70020EAE70000AD
:100D70000030004010B502469002044C0319022ACC
:100D800001DD042010BD59600020FBE70030004069
:100D900001468802064BC218022901DD0420704773
:100DA000106D40084000401C10650020F7E700006F
:100DB0000030004010B500240121C02005F01EFDC8
:100DC000002800D100E00124002C0BD10848007855
:100DD000401CC0B206490870032806DB00200870DA
:100DE000012010BD0020024908700020F9E7000032
:100DF000410100201CB501211C2007F039FA012116
:100E000068460170417000218170C170012101713B
:100E10006A46C02005F04AFD1CBD10B50122032121
:100E2000C02005F0D3FC10BD1CB501211C2007F02B
:100E30001FFA012168460170002141708170C17064
:100E400001716A460321C02005F030FD1CBD000081
:100E500010B500240321C02005F0D0FC012801D1E9
:100E6000012400E000241C480078A04207D01A4862
:100E7000047000201849C8700846447013E01648F2
:100E8000C078401CC0B21449C8700A280BDB084661
:100E900040788978884206D00F4840780E4988709B
:100EA0000846407808710C480079012801D10B49A7
:100EB000C874094800790A49097888420AD0084864
:100EC0000078012802D100200449C8740248007942
:100ED0000349087010BD000032010020D80A00202C
:100EE0004201002010B5FFF7B3FF13480079002836
:100EF00017D1124948691249FFF736FA0DD2114845
:100F00000078401CC0B20F490870142813DB002081
:100F1000087006200C49C8740DE0002009490870CB
:100F200009E000200749087008480078012802D12C
:100F300005200649087010BD320100200C0D00206C
:100F40000000484522010020D80A0020FA000020B5
:100F500070B5054600240A212846FFF7D9F8044653
:100F6000724841692046643081422BD27048008823
:100F70003C305F21C900884205DA6D4800883C306A
:100F80006B4908805BE06A48008828305F21C9000F
:100F9000884205DA664800882830654908804EE0B6
:100FA0006348008814305F21C900884205DA604830
:100FB000008814305E49088041E05F20C0005C4931
:100FC00008803CE05948416920460A3081421FD2DE
:100FD0005748008828305F21C900884205DA544804
:100FE000008828305249088029E051480088143090
:100FF0005F21C900884205DA4D48008814304C4909
:1010000008801CE04A480088401C4949088016E0D6
:1010100046484169601C814211D245480088401D04
:101020005F21C900884205DA41480088401D4049D7
:10103000088004E03E480088401C3D4908803B4849
:1010400040696430A04231D939480088502805DD14
:101050003748008850383649088062E034480088B4
:101060003C2805DD324800883C383149088058E08A
:101070002F480088282805DD2D48008828382C496D
:1010800008804EE02A480088142805DD284800889A
:1010900014382749088044E025480088002840DDAE
:1010A00023480088401E224908803AE01F484069D2
:1010B0000A30A04227D91E4800883C2805DD1C487C
:1010C00000883C381A4908802BE0194800882828F5
:1010D00005DD1748008828381549088021E01448A4
:1010E0000088142805DD124800881438104908804B
:1010F00017E00F480088002813DD0D480088401EC7
:101100000B4908800DE009484069401CA04208D9FD
:1011100007480088002804DD05480088401E04496F
:1011200008800349088800F005F870BD8C0C002089
:10113000C409002070B50446002519204001001B99
:1011400085B22A4600210846FFF7F4FD70BD10B5B0
:101150000020FFF71DFE10BD10B50246002013024F
:101160000F4C19194B695B085B004B614B690424F8
:10117000A3434B614B692024A3434B614B69640239
:10118000A3434B614B696400A3434B614B69E4117A
:10119000A3434B614B69E400A3434B6110BD0000C6
:1011A000000C004030B5024600201402034D6319C4
:1011B00001248C40E4435C6130BD0000000C004021
:1011C00070B5024600201502034EAB191C69254676
:1011D000CD40E807C00F70BD000C0040F0B50346DD
:1011E0000C4600201D02084EA9190D682D0C2D0477
:1011F000A6B235430D60CD688026B543D601802761
:101200003E403543CD60F0BD000C004030B5024695
:1012100000201402044D63195C68240C24048DB270
:101220002C435C6030BD0000000C0040F0B503466C
:101230000C4600201D020A4EA9190D6BB614B543C9
:10124000260301273F033E4035430D630D6B7E109F
:10125000B543D6027F103E4035430D63F0BD00001C
:10126000000C004010B5014600200B02034C1A1977
:10127000D3685B085B005B1CD36010BD000C0040B2
:1012800030B5024600201402044D63195C6B240A39
:101290002402CDB22C435C6330BD0000000C004042
:1012A00030B502460B46002014021B4D6119052B78
:1012B00018D004DC002B07D0022B28D10BE00E2B1A
:1012C00017D00F2B23D11BE0CC680125AD02AC4316
:1012D0006419CC601DE04C6AFF250135AC436419EC
:1012E0004C6216E04C6A01256D02AC4364194C62F5
:1012F0000FE0CC6801252D05AC436419CC6008E0F3
:10130000CC680125ED04AC436419CC6001E00120F8
:1013100000BF00BF30BD0000000C004030B50246E9
:101320000020002A04D0012A60D0022A7ED1BDE02C
:101330008F4BDB6803242403A3430C782403032589
:101340002D032C4023438A4CE3602346DB68702442
:10135000A3438C78240170252C402343844CE36004
:101360002346DB680424A343CC78A40004252C4046
:1013700023437F4CE3602346DB680224A3430C79BC
:10138000640002252C402343794CE3602346DB684C
:101390000824A3434C79E40008252C402343744CD3
:1013A000E3602346DB682414A3438C79A403ED0295
:1013B0002C4023436E4CE3602346DB686413A34355
:1013C000CC796404ED002C402343694CE360234650
:1013D000DB68AC02A3434C78E406AD022C40234307
:1013E000634CE360634C8B682360BFE0624BDB6857
:1013F00003242403A3430C78240303252D032C404A
:1014000023435D4CE3602346DB687024A3438C7860
:10141000240170252C402343574CE3602346DB68AE
:101420000424A343CC78A400042500E09CE02C40D5
:101430002343514CE3602346DB680224A3430C7929
:10144000640002252C4023434B4CE3602346DB68B9
:101450000824A3434C79E40008252C402343464C40
:10146000E3602346DB682414A3438C79A403ED02D4
:101470002C402343404CE3602346DB686413A343C2
:10148000CC796404ED002C4023433B4CE3602346BD
:10149000DB68AC02A3434C78E406AD022C40234346
:1014A000354CE360354CCB6823605FE0344BDB6840
:1014B00003242403A3430C78240303252D032C4089
:1014C00023432F4CE3602346DB687024A3438C78CE
:1014D000240170252C402343294CE3602346DB681C
:1014E0000424A343CC78A40004252C402343244C9B
:1014F000E3602346DB680224A3430C7964000225E1
:101500002C4023431E4CE3602346DB680824A3439E
:101510004C79E40008252C402343194CE360234612
:10152000DB682414A3438C79A403ED022C402343ED
:10153000134CE3602346DB686413A343CC79640453
:10154000ED002C4023430E4CE3602346DB68AC02E5
:10155000A3434C78E406AD022C402343084CE360DF
:10156000084C0B69236001E0012000BF00BF30BDC3
:10157000000C0040580A0020000D00405C0A0020CA
:10158000000E0040600A002010B5012006F08EFE1B
:10159000002006F0D9FE0A2007F08EFF022006F098
:1015A00085FE002006F0D0FE0A2007F085FF03200C
:1015B00006F07CFE002006F0C7FE0A2007F07CFF44
:1015C000042006F073FE002006F0BEFE10BD0346A8
:1015D0008B4206D3581A904201D801207047002050
:1015E000FCE7994206D3C81A904201D80120F5E7DA
:1015F0000020F3E700BFF1E7704710B5002200219B
:1016000000BF09E07D22D20000BF1346541EA2B2E3
:10161000002BFAD14B1C99B28142F3DB10BD0000C4
:1016200000200A490870012009498873E1208000E0
:10163000C8800020C8744881FE2004490870012039
:101640000349C8730020C87008817047FA00002061
:10165000D80A00200120014908707047F6000020D8
:1016600010B50346002B03D0012B01D0042010BD80
:10167000002B12D10878012805D11068002802D06B
:10168000114C9068A060487801281AD11068002891
:1016900017D00D4C1068206013E0012B11D1087891
:1016A000012805D15068002802D0074CD068E060BE
:1016B0004878012805D15068002802D0024C5068B3
:1016C00060600020D3E700004C0D00200448006853
:1016D000400040080121C9074018014908607047CF
:1016E000001002400146002903D0012901D0042046
:1016F0007047002909D10A480069400040080122CA
:10170000D2078018064A106108E00548006A4000C8
:1017100040080122D2078018014A10620020E7E742
:10172000001002400146002903D0012901D0042005
:101730007047002908D1094840690122D20490432A
:101740008018064A506107E00448406A0122D2042A
:1017500090438018014A50620020E9E700100240DF
:1017600010B504463A4840694003400F012811D0A3
:10177000374840694003400F02280BD03448406985
:101780004003400F032805D0314840694003400F13
:1017900004280DD12F488068002802D02D49086800
:1017A00080472B484069072109048843284948613C
:1017B0002748406A4003400F012811D02448406A5E
:1017C0004003400F02280BD02148406A4003400FDD
:1017D000032805D01E48406A4003400F04280DD15D
:1017E0001C48C068002802D01A4948688047184839
:1017F000406A072109048843154948621448406932
:101800004003400F05280DD112480068002802D07F
:101810001049086880470E48406907210904884339
:101820000B4948610A48406A4003400F05280DD122
:1018300008484068002802D00649486880470448A4
:10184000406A0721090488430149486210BD00002D
:10185000001002404C0D002010B50246002A01D0B5
:10186000012A01D1002901D1042010BD002A7DD117
:101870009E4840690123DB0498439C4B58611846FD
:10188000406901231B059843984B586118464069ED
:1018900003231B0798430B781B07032424072340CB
:1018A0001843924B5861184600693F23DB05984363
:1018B0004B7DDB053F24E405234018438B4B186127
:1018C000184600690F231B0498434B885B1E1B04BA
:1018D0000F24240423401843844B186118460069E0
:1018E000000C00048B885B1E9BB218437F4B186171
:1018F0001846406903239B0698438B799B06032473
:10190000A40623401843794B5861184640690123C7
:101910005B069843CB795B06012464062340184399
:10192000724B586118468069CB6818466F4B9861B6
:1019300018464069631098430B7A1B0664102340D5
:1019400018436A4B58611846C0690B691846674BC3
:10195000D86118464069A31098434B7A9B05A410A0
:1019600023401843614B5861184600E01FE040696E
:10197000631098438B7A5B056410234018435B4BDC
:10198000586118464069A3009843CB7ADB05A40050
:1019900023401843554B58611846406940084000A1
:1019A0000B7DDB07DB0F1843504B58619BE04F4822
:1019B000406A0123DB0498434C4B58621846406A46
:1019C00001231B059843494B58621846406A03237C
:1019D0001B0798430B781B07032424072340184355
:1019E000424B58621846006A3F23DB0598434B7D03
:1019F000DB053F24E405234018433C4B186218469E
:101A0000006A0F231B0498434B885B1E1B040F24A2
:101A1000240423401843354B18621846006A000C12
:101A200000048B885B1E9BB21843304B186218462B
:101A3000406A03239B0698438B799B060324A406E4
:101A400023401843294B58621846406A01235B061D
:101A50009843CB795B060124640623401843234B4B
:101A600058621846806ACB681846204B9862184620
:101A7000406A631098430B7A1B0664102340184396
:101A80001A4B58621846C06A0B691846174BD86241
:101A90001846406AA31098434B7A9B05A410234034
:101AA0001843124B58621846406A631098438B7A69
:101AB0005B056410234018430C4B58621846406A7B
:101AC000A3009843CB7ADB05A40023401843074BBF
:101AD00058621846406A400840000B7DDB07DB0F68
:101AE0001843024B58620020BFE60000001002407D
:101AF000002808D108490969012252079143891831
:101B0000054A116107E00449096A0122520791431D
:101B10008918014A116270470010024010B5F4485C
:101B2000807B030007F0B2FB0906386A9CCEFAF905
:101B3000F8F73700EF480078002824DDED484088AA
:101B4000FF21F531884215DB0020EA49488008462C
:101B50004078E7490979884205DAE6484078401C30
:101B6000E449487006E00020E249087008464078E1
:101B7000DF49C870DF494978DF4A5143DF4A881896
:101B8000FFF7E6F907E0DA49C978DB4A5143DB4A57
:101B90008818FFF7DDF993E1D6480078002824DDA6
:101BA000D4484088FF21F531884215DB0020D14917
:101BB000488008464078CE490979884205DACD4800
:101BC0004078401CCB49487006E00020C9490870A5
:101BD00008464078C649C870C6494978C64A514344
:101BE000C64A8818FFF7B4F907E0C149C978C24A64
:101BF0005143C24A8818FFF7ABF961E1BD4800784C
:101C0000002824DDBB484088FF21F531884215DBE0
:101C10000020B849488008464078B549097988428B
:101C200005DAB4484078401CB249487006E000200C
:101C3000B049087008464078AD49C870AD49497848
:101C4000AD4A5143AD4A8818FFF782F907E0A84929
:101C5000C978A94A5143A94A8818FFF779F92FE1B1
:101C6000A4480078002824DDA2484088FF21F531EF
:101C7000884215DB00209F494880084640789C49EF
:101C80000979884205DA9B484078401C9949487098
:101C900006E0002097490870084640789449C870CB
:101CA00094494978944A5143944A8818FFF750F967
:101CB00007E08F49C978904A5143904A8818FFF746
:101CC00047F9FDE08B480078002828DD89484088E6
:101CD000FF21F531884215DB0020864948800846FF
:101CE000407883490979884205DA82484078401C67
:101CF0008049487006E000207E4908700846407818
:101D00007B49C8707B4949787B4A51437B4A881894
:101D1000FFF71EF90BE0A1E06EE03BE008E074493C
:101D2000C978754A5143754A8818FFF711F9C7E019
:101D300070480078002824DD6E484088FF21F53186
:101D4000884215DB00206B49488008464078684986
:101D50000979884205DA67484078401C654948702F
:101D600006E0002063490870084640786049C87062
:101D700060494978604A5143604A8818FFF7E8F89B
:101D800007E05B49C9785C4A51435C4A8818FFF711
:101D9000DFF895E057480078002824DD5548408852
:101DA000FF21F531884215DB002052494880084662
:101DB00040784F490979884205DA4E484078401CFE
:101DC0004C49487006E000204A49087008464078AF
:101DD0004749C87047494978474A5143474A881894
:101DE000FFF7B6F807E04249C978434A5143434AEE
:101DF0008818FFF7ADF863E03E480078002824DD3E
:101E00003C484088FF21F531884215DB00203949E4
:101E100048800846407836490979884205DA3548CD
:101E20004078401C3349487006E000203149087072
:101E3000084640782E49C8702E4949782E4A5143A9
:101E40002E4A8818FFF784F807E02949C9782A4AFA
:101E500051432A4A8818FFF77BF831E0254800787B
:101E6000002824DD23484088FF21F531884215DB16
:101E7000002020494880084640781D490979884259
:101E800005DA1C484078401C1A49487006E00020DA
:101E900018490870084640781549C87015494978AE
:101EA000154A5143154A8818FFF752F807E01049C0
:101EB000C978114A5143114A8818FFF749F800BF01
:101EC00000BF0F488078012810D10E4A5169084A96
:101ED000D278094B5A43094BD0187D221201FFF7E3
:101EE00076FB002802DD00200549887010BD000047
:101EF000D80A0020C8090020AC0D0000B8880000F6
:101F0000FC0C00208C0C002010B506F09DFD06F0A6
:101F100038FD04F06DFB10BD1CB501211C2006F03E
:101F2000A7F90121684601700021417001218170EB
:101F30000021C170012101716A460621002004F0D0
:101F4000B5FC08220621002004F04CFC01220321EC
:101F5000002004F053FB1CBD1CB501211C2006F021
:101F600087F90521684607F097FA00216846017055
:101F70004170C1708170012101716A4603214020C6
:101F800004F094FC6A460F21002004F08FFC6A469E
:101F90000521402004F08AFC6A460421402004F018
:101FA00085FC6A460721402004F080FC6A46062131
:101FB000402004F07BFC6A460E21802004F076FC71
:101FC0006A460F21802004F071FC0321402004F0B8
:101FD000EFFB0F21002004F0EBFB0521402004F073
:101FE000E7FB0421402004F0E3FB0721402004F03C
:101FF000DFFB0621402004F0DBFB0E21802004F0F3
:10200000D7FB0F21802004F0D3FB1CBD08B50020B6
:1020100000901E480078002805DD00201B4908704C
:102020000120009001E000200090184840786946A7
:10203000097888421ED01548807869460978884218
:1020400005D06846007811498870002088800F48C4
:102050008078002808D10D4880883C280ADD684631
:1020600000780A49487005E00020084988806846E1
:102070000078487005484078012802D1044908706A
:1020800002E000200249087008BD00002C01002079
:10209000D80A002010B50E48807B030007F0F6F840
:1020A0000906090A0B0C0F101112150005F05AFC55
:1020B0000BE000BF00BF00BF05F028FB05E000BF3C
:1020C00000BF00BF05F0ACFA00BF00BF10BD0000AC
:1020D000D80A002010B5FFF799FF10BD70B505466E
:1020E0000C46207800284BD101202070032140208D
:1020F00004F09AFC0421402004F096FC07214020C3
:1021000004F092FC0F21802004F08EFC284607F09A
:1021100003FA0321402004F04BFB0421402004F08B
:1021200047FB0721402004F043FB0F21802004F0EF
:102130003FFB052007F0F0F90F21002004F074FCAC
:102140000521402004F070FC0621402004F06CFCC6
:102150000E21802004F068FC284607F0DDF90F21ED
:10216000002004F025FB0521402004F021FB06217E
:10217000402004F01DFB0E21802004F019FBE8E054
:10218000207801284BD1022020700F21002004F07C
:102190004BFC0521402004F047FC0621402004F0C0
:1021A00043FC0E21802004F03FFC284607F0B4F9E0
:1021B0000F21002004F0FCFA0521402004F0F8FA79
:1021C0000621402004F0F4FA0E21802004F0F0FAF9
:1021D000052007F0A1F90321402004F025FC04218B
:1021E000402004F021FC0721402004F01DFC0F21B9
:1021F000802004F019FC284607F08EF903214020C6
:1022000004F0D6FA0421402004F0D2FA072140203D
:1022100004F0CEFA0F21802004F0CAFA99E0207869
:1022200002284BD1032020700F21002004F0FCFB7A
:102230000521402004F0F8FB0621402004F0F4FBC7
:102240000E21802004F0F0FB284607F065F90F21ED
:10225000002004F0ADFA0521402004F0A9FA06217F
:10226000402004F0A5FA0E21802004F0A1FA0520F8
:1022700007F052F90321402004F0D6FB042140204E
:1022800004F0D2FB0721402004F0CEFB0F21802078
:1022900004F0CAFB284607F03FF90321402004F070
:1022A00087FA0421402004F083FA0721402004F03B
:1022B0007FFA0F21802004F07BFA4AE00020207092
:1022C0000321402004F0B0FB0421402004F0ACFBCB
:1022D0000721402004F0A8FB0F21802004F0A4FB7C
:1022E000284607F019F90321402004F061FA04217F
:1022F000402004F05DFA0721402004F059FA0F2134
:10230000802004F055FA052007F006F90F2100207F
:1023100004F08AFB0521402004F086FB06214020C2
:1023200004F082FB0E21802004F07EFB284607F09B
:10233000F3F80F21002004F03BFA0521402004F0BF
:1023400037FA0621402004F033FA0E21802004F0F1
:102350002FFA70BD70B505460C46207800284BD189
:10236000012020700321402004F05EFB0521402065
:1023700004F05AFB0721402004F056FB0F21802077
:1023800004F052FB284607F0C7F80321402004F070
:102390000FFA0521402004F00BFA0721402004F039
:1023A00007FA0F21802004F003FA052007F0B4F8A3
:1023B0000F21002004F038FB0421402004F034FBFE
:1023C0000621402004F030FB0E21802004F02CFB7D
:1023D000284607F0A1F80F21002004F0E9F90421B4
:1023E000402004F0E5F90621402004F0E1F90E2137
:1023F000802004F0DDF9E8E0207801284BD10220AC
:1024000020700F21002004F00FFB0421402004F075
:102410000BFB0621402004F007FB0E21802004F076
:1024200003FB284607F078F80F21002004F0C0F9DC
:102430000421402004F0BCF90621402004F0B8F942
:102440000E21802004F0B4F9052007F065F803217F
:10245000402004F0E9FA0521402004F0E5FA0721C4
:10246000402004F0E1FA0F21802004F0DDFA284634
:1024700007F052F80321402004F09AF9052140208A
:1024800004F096F90721402004F092F90F218020F2
:1024900004F08EF999E0207802284BD103202070B7
:1024A0000F21002004F0C0FA0421402004F0BCFAFF
:1024B0000621402004F0B8FA0E21802004F0B4FA7E
:1024C000284607F029F80F21002004F071F90421B3
:1024D000402004F06DF90621402004F069F90E2136
:1024E000802004F065F9052007F016F8032140204C
:1024F00004F09AFA0521402004F096FA07214020C2
:1025000004F092FA0F21802004F08EFA284607F09A
:1025100003F80321402004F04BF90521402004F08A
:1025200047F90721402004F043F90F21802004F0EF
:102530003FF94AE0002020700321402004F074FAA3
:102540000521402004F070FA0721402004F06CFAC5
:102550000F21802004F068FA284606F0DDFF0321F1
:10256000402004F025F90521402004F021F907213D
:10257000402004F01DF90F21802004F019F90520F6
:1025800006F0CAFF0F21002004F04EFA042140207B
:1025900004F04AFA0621402004F046FA0E21802079
:1025A00004F042FA284606F0B7FF0F21002004F09D
:1025B000FFF80421402004F0FBF80621402004F03D
:1025C000F7F80E21802004F0F3F870BD70B50546D1
:1025D0000C46207800284BD1012020700321402098
:1025E00004F022FA0521402004F01EFA0E2180207A
:1025F00004F01AFA0621402004F016FA284606F0E4
:102600008BFF0321402004F0D3F80521402004F083
:10261000CFF80E21802004F0CBF80621402004F0F2
:10262000C7F8052006F078FF0F21002004F0FCF920
:102630000421402004F0F8F90F21802004F0F4F97F
:102640000721402004F0F0F9284606F065FF0F212D
:10265000002004F0ADF80421402004F0A9F80F2177
:10266000802004F0A5F80721402004F0A1F8E8E05C
:10267000207801284BD1022020700F21002004F087
:10268000D3F90421402004F0CFF90F21802004F079
:10269000CBF90721402004F0C7F9284606F03CFF9B
:1026A0000F21002004F084F80421402004F080F879
:1026B0000F21802004F07CF80721402004F078F8F6
:1026C000052006F029FF0321402004F0ADF9052183
:1026D000402004F0A9F90E21802004F0A5F906217C
:1026E000402004F0A1F9284606F016FF03214020FF
:1026F00004F05EF80521402004F05AF80E218020F5
:1027000004F056F80621402004F052F899E02078B1
:1027100002284BD1032020700F21002004F084F9FF
:102720000421402004F080F90F21802004F07CF97E
:102730000721402004F078F9284606F0EDFE0F212D
:10274000002004F035F80421402004F031F80F2176
:10275000802004F02DF80721402004F029F80520FE
:1027600006F0DAFE0321402004F05EF90521402046
:1027700004F05AF90E21802004F056F90621402079
:1027800004F052F9284606F0C7FE0321402004F069
:102790000FF80521402004F00BF80E21802004F0F2
:1027A00007F80621402004F003F84AE000202070DA
:1027B0000321402004F038F90521402004F034F9C9
:1027C0000E21802004F030F90621402004F02CF97D
:1027D000284606F0A1FE0321402003F0E9FF052171
:1027E000402003F0E5FF0E21802003F0E1FF0621E9
:1027F000402003F0DDFF052006F08EFE0F210020B3
:1028000004F012F90421402004F00EF90F21802079
:1028100004F00AF90721402004F006F9284606F0E2
:102820007BFE0F21002003F0C3FF0421402003F0B2
:10283000BFFF0F21802003F0BBFF0721402003F0E2
:10284000B7FF70BD70B505460C46207800284BD107
:10285000012020700321402004F0E6F806214020EA
:1028600004F0E2F80521402004F0DEF80F2180207A
:1028700004F0DAF8284606F04FFE0321402003F06A
:1028800097FF0621402003F093FF0521402003F02D
:102890008FFF0F21802003F08BFF052006F03CFE08
:1028A0000F21002004F0C0F80721402004F0BCF8FC
:1028B0000421402004F0B8F80E21802004F0B4F880
:1028C000284606F029FE0F21002003F071FF0721A2
:1028D000402003F06DFF0421402003F069FF0E212A
:1028E000802003F065FFE8E0207801284BD102202A
:1028F00020700F21002004F097F80721402004F0F9
:1029000093F80421402004F08FF80E21802004F079
:102910008BF8284606F000FE0F21002003F048FF48
:102920000721402003F044FF0421402003F040FF32
:102930000E21802003F03CFF052006F0EDFD032171
:10294000402004F071F80621402004F06DF80521C4
:10295000402004F069F80F21802004F065F8284633
:1029600006F0DAFD0321402003F022FF062140207B
:1029700003F01EFF0521402003F01AFF0F218020E5
:1029800003F016FF99E0207802284BD10320207035
:102990000F21002004F048F80721402004F044F8FB
:1029A0000421402004F040F80E21802004F03CF87F
:1029B000284606F0B1FD0F21002003F0F9FE0721A3
:1029C000402003F0F5FE0421402003F0F1FE0E212B
:1029D000802003F0EDFE052006F09EFD032140203F
:1029E00004F022F80621402004F01EF805214020C2
:1029F00004F01AF80F21802004F016F8284606F09B
:102A00008BFD0321402003F0D3FE0621402003F07C
:102A1000CFFE0521402003F0CBFE0F21802003F0E4
:102A2000C7FE4AE0002020700321402003F0FCFF95
:102A30000621402003F0F8FF0521402003F0F4FFB9
:102A40000F21802003F0F0FF284606F065FD0321EA
:102A5000402003F0ADFE0621402003F0A9FE052131
:102A6000402003F0A5FE0F21802003F0A1FE0520E9
:102A700006F052FD0F21002003F0D6FF0721402071
:102A800003F0D2FF0421402003F0CEFF0E2180206E
:102A900003F0CAFF284606F03FFD0F21002003F097
:102AA00087FE0721402003F083FE0421402003F02D
:102AB0007FFE0E21802003F07BFE70BD70B50546C1
:102AC0000C46207800284BD10120207003214020A3
:102AD00003F0AAFF0721402003F0A6FF0E2180206B
:102AE00003F0A2FF0421402003F09EFF284606F0D9
:102AF00013FD0321402003F05BFE0721402003F07B
:102B000057FE0E21802003F053FE0421402003F0E5
:102B10004FFE052006F000FD0F21002003F084FF8A
:102B20000621402003F080FF0F21802003F07CFF6E
:102B30000521402003F078FF284606F0EDFC0F2128
:102B4000002003F035FE0621402003F031FE0F2166
:102B5000802003F02DFE0521402003F029FEE8E04F
:102B6000207801284BD1022020700F21002003F093
:102B70005BFF0621402003F057FF0F21802003F068
:102B800053FF0521402003F04FFF284606F0C4FC08
:102B90000F21002003F00CFE0621402003F008FE68
:102BA0000F21802003F004FE0521402003F000FEE9
:102BB000052006F0B1FC0321402003F035FF07217A
:102BC000402003F031FF0E21802003F02DFF04216F
:102BD000402003F029FF284606F09EFC03214020F8
:102BE00003F0E6FD0721402003F0E2FD0E218020E6
:102BF00003F0DEFD0421402003F0DAFD99E02078A7
:102C000002284BD1032020700F21002003F00CFF7D
:102C10000621402003F008FF0F21802003F004FF6D
:102C20000521402003F000FF284606F075FC0F2127
:102C3000002003F0BDFD0621402003F0B9FD0F2167
:102C4000802003F0B5FD0521402003F0B1FD0520F3
:102C500006F062FC0321402003F0E6FE072140203D
:102C600003F0E2FE0E21802003F0DEFE042140206E
:102C700003F0DAFE284606F04FFC0321402003F063
:102C800097FD0721402003F093FD0E21802003F0E3
:102C90008FFD0421402003F08BFD4AE000202070CE
:102CA0000321402003F0C0FE0721402003F0BCFEBA
:102CB0000E21802003F0B8FE0421402003F0B4FE72
:102CC000284606F029FC0321402003F071FD07216E
:102CD000402003F06DFD0E21802003F069FD0421EA
:102CE000402003F065FD052006F016FC0F210020B2
:102CF00003F09AFE0621402003F096FE0F2180206B
:102D000003F092FE0521402003F08EFE284606F0D7
:102D100003FC0F21002003F04BFD0621402003F0AF
:102D200047FD0F21802003F043FD0521402003F0E3
:102D30003FFD70BD70B505460C46207800284BD18C
:102D4000012020700321402003F06EFE0F2180201F
:102D500003F06AFE0521402003F066FE06214020B4
:102D600003F062FE284606F0D7FB0321402003F063
:102D70001FFD0F21802003F01BFD0521402003F0E3
:102D800017FD0621402003F013FD052006F0C4FBCB
:102D90000F21002003F048FE0E21802003F044FEA6
:102DA0000421402003F040FE0721402003F03CFEB8
:102DB000284606F0B1FB0F21002003F0F9FC0E219C
:102DC000802003F0F5FC0421402003F0F1FC0721F2
:102DD000402003F0EDFCE8E0207801284BD10220F0
:102DE00020700F21002003F01FFE0E21802003F031
:102DF0001BFE0421402003F017FE0721402003F0B2
:102E000013FE284606F088FB0F21002003F0D0FCBB
:102E10000E21802003F0CCFC0421402003F0C8FCEC
:102E20000721402003F0C4FC052006F075FB0321B8
:102E3000402003F0F9FD0F21802003F0F5FD05216E
:102E4000402003F0F1FD0621402003F0EDFD28466F
:102E500006F062FB0321402003F0AAFC0F21802032
:102E600003F0A6FC0521402003F0A2FC062140202F
:102E700003F09EFC99E0207802284BD103202070BB
:102E80000F21002003F0D0FD0E21802003F0CCFDA7
:102E90000421402003F0C8FD0721402003F0C4FDB9
:102EA000284606F039FB0F21002003F081FC0E219B
:102EB000802003F07DFC0421402003F079FC0721F1
:102EC000402003F075FC052006F026FB032140207E
:102ED00003F0AAFD0F21802003F0A6FD052140206C
:102EE00003F0A2FD0621402003F09EFD284606F0D7
:102EF00013FB0321402003F05BFC0F21802003F033
:102F000057FC0521402003F053FC0621402003F02C
:102F10004FFC4AE0002020700321402003F084FD94
:102F20000F21802003F080FD0521402003F07CFD6F
:102F30000621402003F078FD284606F0EDFA032133
:102F4000402003F035FC0F21802003F031FC0521E7
:102F5000402003F02DFC0621402003F029FC052031
:102F600006F0DAFA0F21002003F05EFD0E2180202A
:102F700003F05AFD0421402003F056FD07214020B4
:102F800003F052FD284606F0C7FA0F21002003F097
:102F90000FFC0E21802003F00BFC0521402003F0E4
:102FA00007FC0621402003F003FC70BD70B5054608
:102FB0000C46207800283BD10120207003214020BE
:102FC00003F032FD0421402003F02EFD07214020B4
:102FD00003F02AFD0F21802003F026FD284606F08D
:102FE0009BFA0321402003F0E3FB0421402003F07F
:102FF000DFFB0721402003F0DBFB0F21802003F0E3
:10300000D7FB052006F088FA0621402003F00CFDCE
:103010000E21802003F008FD284606F07DFA0621E7
:10302000402003F0C5FB0E21802003F0C1FBB8E077
:10303000207801283BD1022020700321402003F09A
:10304000F3FC0421402003F0EFFC0621402003F0B4
:10305000EBFC0E21802003F0E7FC284606F05CFA2A
:103060000321402003F0A4FB0421402003F0A0FB37
:103070000621402003F09CFB0E21802003F098FBEA
:10308000052006F049FA0721402003F0CDFC0F216E
:10309000802003F0C9FC284606F03EFA07214020B4
:1030A00003F086FB0F21802003F082FB79E020787B
:1030B00002283BD1032020700321402003F0B4FC00
:1030C0000421402003F0B0FC0621402003F0ACFCBA
:1030D0000E21802003F0A8FC284606F01DFA0321EB
:1030E000402003F065FB0421402003F061FB062132
:1030F000402003F05DFB0E21802003F059FB0520EA
:1031000006F00AFA0721402003F08EFC0F218020F0
:1031100003F08AFC284606F0FFF90721402003F05F
:1031200047FB0F21802003F043FB3AE00020207092
:103130000321402003F078FC0421402003F074FCBC
:103140000721402003F070FC0F21802003F06CFC6D
:10315000284606F0E1F90321402003F029FB042171
:10316000402003F025FB0721402003F021FB0F2125
:10317000802003F01DFB052006F0CEF9062140203B
:1031800003F052FC0E21802003F04EFC284606F08E
:10319000C3F90621402003F00BFB0E21802003F031
:1031A00007FB70BD10B504460321402003F03CFC32
:1031B0000421402003F038FC0721402003F034FCB8
:1031C0000F21802003F030FC204606F0A5F90321F2
:1031D000402003F0EDFA0421402003F0E9FA072132
:1031E000402003F0E5FA0F21802003F0E1FA10BD42
:1031F00010B504460321402003F016FC04214020B2
:1032000003F012FC0E21802003F00EFC062140206A
:1032100003F00AFC204606F07FF90321402003F06A
:10322000C7FA0421402003F0C3FA0E21802003F0E6
:10323000BFFA0621402003F0BBFA10BD70B5054669
:103240000C46207800283BD101202070032140202B
:1032500003F0EAFB0621402003F0E6FB05214020B5
:1032600003F0E2FB0F21802003F0DEFB284606F08E
:1032700053F90321402003F09BFA0621402003F07C
:1032800097FA0521402003F093FA0F21802003F0E4
:103290008FFA052006F040F90421402003F0C4FB1A
:1032A0000E21802003F0C0FB284606F035F90421EA
:1032B000402003F07DFA0E21802003F079FAB8E077
:1032C000207801283BD1022020700321402003F008
:1032D000ABFB0621402003F0A7FB0421402003F0B4
:1032E000A3FB0E21802003F09FFB284606F014F973
:1032F0000321402003F05CFA0621402003F058FA35
:103300000421402003F054FA0E21802003F050FAEB
:10331000052006F001F90521402003F085FB0F216F
:10332000802003F081FB284606F0F6F805214020B6
:1033300003F03EFA0F21802003F03AFA79E020787A
:1033400002283BD1032020700321402003F06CFBB6
:103350000621402003F068FB0421402003F064FBB9
:103360000E21802003F060FB284606F0D5F80321EB
:10337000402003F01DFA0621402003F019FA042131
:10338000402003F015FA0E21802003F011FA0520E9
:1033900006F0C2F80521402003F046FB0F218020F3
:1033A00003F042FB284606F0B7F80521402003F061
:1033B000FFF90F21802003F0FBF93AE00020207094
:1033C0000321402003F030FB0621402003F02CFBBA
:1033D0000521402003F028FB0F21802003F024FB6F
:1033E000284606F099F80321402003F0E1F9062170
:1033F000402003F0DDF90521402003F0D9F90F2129
:10340000802003F0D5F9052006F086F8042140203D
:1034100003F00AFB0E21802003F006FB284606F08D
:103420007BF80421402003F0C3F90E21802003F033
:10343000BFF970BD70B505460C46207800282BD129
:10344000012020700321402003F0EEFA06214020E5
:1034500003F0EAFA284606F05FF80321402003F063
:10346000A7F90621402003F0A3F9052006F054F83F
:103470000F21002003F0D8FA0721402003F0D4FAEE
:10348000284606F049F80F21002003F091F90721A2
:10349000402003F08DF987E0207801282BD102200D
:1034A00020700F21002003F0BFFA0721402003F015
:1034B000BBFA284606F030F80F21002003F078F917
:1034C0000721402003F074F9052006F025F80321B8
:1034D000402003F0A9FA0621402003F0A5FA28466F
:1034E00006F01AF80321402003F062F9062140207B
:1034F00003F05EF958E0207802282AD120700F21CD
:10350000002003F091FA0721402003F08DFA2846AD
:1035100006F002F80F21002003F04AF907214020AD
:1035200003F046F9052005F0F7FF0321402003F0E2
:103530007BFA0621402003F077FA284605F0ECFFDD
:103540000321402003F034F90621402003F030F934
:103550002AE0002020700321402003F065FA0621B4
:10356000402003F061FA284605F0D6FF03214020F1
:1035700003F01EF90621402003F01AF9052005F09A
:10358000CBFF0F21002003F04FFA0721402003F06A
:103590004BFA284605F0C0FF0F21002003F008F980
:1035A0000721402003F004F970BD10B50446032143
:1035B000402003F039FA0621402003F035FA0521B6
:1035C000402003F031FA0F21802003F02DFA20462D
:1035D00005F0A2FF0321402003F0EAF80621402075
:1035E00003F0E6F80521402003F0E2F80F218020E7
:1035F00003F0DEF810BD10B504460321402003F0AF
:1036000013FA0621402003F00FFA0E21802003F068
:103610000BFA0421402003F007FA204605F07CFF56
:103620000321402003F0C4F80621402003F0C0F835
:103630000E21802003F0BCF80421402003F0B8F8EC
:1036400010BD70B505460C46207800283BD10120FE
:1036500020700321402003F0E7F90F21802003F0C0
:10366000E3F90521402003F0DFF90621402003F0B3
:10367000DBF9284605F050FF0321402003F098F8BD
:103680000F21802003F094F80521402003F090F8EA
:103690000621402003F08CF8052005F03DFF0421B1
:1036A000402003F0C1F90721402003F0BDF928466E
:1036B00005F032FF0421402003F07AF80721402072
:1036C00003F076F8B8E0207801283BD10220207082
:1036D0000321402003F0A8F90F21802003F0A4F972
:1036E0000421402003F0A0F90721402003F09CF9B9
:1036F000284605F011FF0321402003F059F80F215F
:10370000802003F055F80421402003F051F80721F0
:10371000402003F04DF8052005F0FEFE0521402075
:1037200003F082F90621402003F07EF9284605F0D7
:10373000F3FE0521402003F03BF80621402003F072
:1037400037F879E0207802283BD10320207003214C
:10375000402003F069F90F21802003F065F904216E
:10376000402003F061F90721402003F05DF928466D
:1037700005F0D2FE0321402003F01AF80F2180202B
:1037800003F016F80421402003F012F8072140202E
:1037900003F00EF8052005F0BFFE0521402003F0E0
:1037A00043F90621402003F03FF9284605F0B4FE16
:1037B0000521402002F0FCFF0621402002F0F8FF26
:1037C0003AE0002020700321402003F02DF90F2162
:1037D000802003F029F90521402003F025F9062176
:1037E000402003F021F9284605F096FE03214020F1
:1037F00002F0DEFF0F21802002F0DAFF05214020D9
:1038000002F0D6FF0621402002F0D2FF052005F08D
:1038100083FE0421402003F007F90721402003F034
:1038200003F9284605F078FE0421402002F0C0FF8D
:103830000721402002F0BCFF70BD70B505460C4664
:10384000207800282BD1012020700321402003F094
:10385000EBF80F21802003F0E7F8284605F05CFE26
:103860000321402002F0A4FF0F21802002F0A0FFDE
:10387000052005F051FE0F21002003F0D5F80E21A0
:10388000802003F0D1F8284605F046FE0F210020E5
:1038900002F08EFF0E21802002F08AFF88E020785F
:1038A00001282BD1022020700F21002003F0BCF84A
:1038B0000E21802003F0B8F8284605F02DFE0F21D8
:1038C000002002F075FF0E21802002F071FF05201C
:1038D00005F022FE0321402003F0A6F80F218020EE
:1038E00003F0A2F8284605F017FE0321402002F05D
:1038F0005FFF0F21802002F05BFF59E02078022853
:103900002BD1032020700F21002003F08DF80E2111
:10391000802003F089F8284605F0FEFD0F210020E5
:1039200002F046FF0E21802002F042FF052005F044
:10393000F3FD0321402003F077F80F21802003F0EE
:1039400073F8284605F0E8FD0321402002F030FF1F
:103950000F21802002F02CFF2AE00020207003219C
:10396000402003F061F80F21802003F05DF8284625
:1039700005F0D2FD0321402002F01AFF0F21802024
:1039800002F016FF052005F0C7FD0F21002003F00F
:103990004BF80E21802003F047F8284605F0BCFDC7
:1039A0000F21002002F004FF0E21802002F000FF12
:1039B00070BD10B504460321402003F035F80F21F7
:1039C000802003F031F80521402003F02DF8062176
:1039D000402003F029F8204605F09EFD03214020F9
:1039E00002F0E6FE0F21802002F0E2FE05214020D9
:1039F00002F0DEFE0621402002F0DAFE10BD10B516
:103A000004460321402003F00FF80F21802003F02B
:103A10000BF80721402003F007F80421402003F0B1
:103A200003F8204605F078FD0321402002F0C0FE97
:103A30000F21802002F0BCFE0721402002F0B8FEDA
:103A40000421402002F0B4FE10BD70B505460C46BE
:103A5000207800284BD1012020700521402002F061
:103A6000E3FF0721402002F0DFFF0E21802002F05B
:103A7000DBFF0F21002002F0D7FF284605F04CFDA8
:103A80000521402002F094FE0721402002F090FE24
:103A90000E21802002F08CFE0F21002002F088FE13
:103AA000052005F039FD0421402002F0BDFF06216C
:103AB000402002F0B9FF0F21802002F0B5FF032162
:103AC000402002F0B1FF284605F026FD04214020E9
:103AD00002F06EFE0621402002F06AFE0F218020D7
:103AE00002F066FE0321402002F062FEE8E020784A
:103AF00001284BD1022020700421402002F094FFC5
:103B00000621402002F090FF0F21802002F08CFF60
:103B10000321402002F088FF284605F0FDFC042127
:103B2000402002F045FE0621402002F041FE0F2118
:103B3000802002F03DFE0321402002F039FE0520E6
:103B400005F0EAFC0521402002F06EFF072140202D
:103B500002F06AFF0E21802002F066FF0F21002094
:103B600002F062FF284605F0D7FC0521402002F054
:103B70001FFE0721402002F01BFE0E21802002F0D4
:103B800017FE0F21002002F013FE99E02078022892
:103B90004BD1032020700421402002F045FF062174
:103BA000402002F041FF0F21802002F03DFF032161
:103BB000402002F039FF284605F0AEFC04214020E9
:103BC00002F0F6FD0621402002F0F2FD0F218020D8
:103BD00002F0EEFD0321402002F0EAFD052005F091
:103BE0009BFC0521402002F01FFF0721402002F02E
:103BF0001BFF0E21802002F017FF0F21002002F092
:103C000013FF284605F088FC0521402002F0D0FD76
:103C10000721402002F0CCFD0E21802002F0C8FDDB
:103C20000F21002002F0C4FD4AE000202070052191
:103C3000402002F0F9FE0721402002F0F5FE0E219F
:103C4000802002F0F1FE0F21002002F0EDFE284658
:103C500005F062FC0521402002F0AAFD072140206A
:103C600002F0A6FD0E21802002F0A2FD0F2100200F
:103C700002F09EFD052005F04FFC0421402002F0DB
:103C8000D3FE0621402002F0CFFE0F21802002F05B
:103C9000CBFE0321402002F0C7FE284605F03CFC85
:103CA0000421402002F084FD0621402002F080FD26
:103CB0000F21802002F07CFD0321402002F078FDDE
:103CC00070BD70B505460C46207800283BD1012018
:103CD00020700521402002F0A7FE0F21002002F0F5
:103CE000A3FE0721402002F09FFE0F21802002F05A
:103CF0009BFE284605F010FC0521402002F058FDEF
:103D00000F21002002F054FD0721402002F050FD59
:103D10000F21802002F04CFD052005F0FDFB06215F
:103D2000402002F081FE0E21802002F07DFE284618
:103D300005F0F2FB0621402002F03AFD0E21802022
:103D400002F036FDB8E0207801283BD10220207037
:103D50000521402002F068FE0F21002002F064FEE1
:103D60000621402002F060FE0E21802002F05CFE61
:103D7000284605F0D1FB0521402002F019FD0F2156
:103D8000002002F015FD0621402002F011FD0E2159
:103D9000802002F00DFD052005F0BEFB072140202C
:103DA00002F042FE0F21802002F03EFE284605F080
:103DB000B3FB0721402002F0FBFC0F21802002F022
:103DC000F7FC79E0207802283BD103202070052100
:103DD000402002F029FE0F21002002F025FE0621DE
:103DE000402002F021FE0E21802002F01DFE284618
:103DF00005F092FB0521402002F0DAFC0F210020A3
:103E000002F0D6FC0621402002F0D2FC0E218020D8
:103E100002F0CEFC052005F07FFB0721402002F0D8
:103E200003FE0F21802002F0FFFD284605F074FB01
:103E30000721402002F0BCFC0F21802002F0B8FCDA
:103E40003AE0002020700521402002F0EDFD0F2116
:103E5000002002F0E9FD0721402002F0E5FD0F21DE
:103E6000802002F0E1FD284605F056FB05214020A8
:103E700002F09EFC0F21002002F09AFC0721402056
:103E800002F096FC0F21802002F092FC052005F044
:103E900043FB0621402002F0C7FD0E21802002F0E6
:103EA000C3FD284605F038FB0621402002F080FCC7
:103EB0000E21802002F07CFC70BD70B505460C46DA
:103EC000207800282BD1012020700521402002F00D
:103ED000ABFD0F21002002F0A7FD284605F01CFBDA
:103EE0000521402002F064FC0F21002002F060FC5C
:103EF000052005F011FB0421402002F095FD03216F
:103F0000402002F091FD284605F006FB04214020E8
:103F100002F04EFC0321402002F04AFC88E02078A9
:103F200001282BD1022020700421402002F07CFDCA
:103F30000321402002F078FD284605F0EDFA042127
:103F4000402002F035FC0321402002F031FC052026
:103F500005F0E2FA0521402002F066FD0F21002065
:103F600002F062FD284605F0D7FA0521402002F054
:103F70001FFC0F21002002F01BFC59E020780228D2
:103F80002BD1032020700421402002F04DFD03219D
:103F9000402002F049FD284605F0BEFA04214020E9
:103FA00002F006FC0321402002F002FC052005F08F
:103FB000B3FA0521402002F037FD0F21002002F066
:103FC00033FD284605F0A8FA0521402002F0F0FB59
:103FD0000F21002002F0ECFB2AE0002020700521D8
:103FE000402002F021FD0F21002002F01DFD284697
:103FF00005F092FA0521402002F0DAFB0F210020A3
:1040000002F0D6FB052005F087FA0421402002F0DB
:104010000BFD0321402002F007FD284605F07CFA45
:104020000421402002F0C4FB0321402002F0C0FB29
:1040300070BD10B504460521402002F0F5FC0F21AB
:10404000002002F0F1FC0721402002F0EDFC0F21DE
:10405000802002F0E9FC204605F05EFA05214020B0
:1040600002F0A6FB0F21002002F0A2FB0721402056
:1040700002F09EFB0F21802002F09AFB10BD10B5CC
:1040800004460521402002F0CFFC0F21002002F061
:10409000CBFC0E21802002F0C7FC0621402002F05C
:1040A000C3FC204605F038FA0521402002F080FBD1
:1040B0000F21002002F07CFB0E21802002F078FB13
:1040C0000621402002F074FB10BD70B505460C4679
:1040D000207800283BD1012020700521402002F0EB
:1040E000A3FC0621402002F09FFC0321402002F0A7
:1040F0009BFC0F21802002F097FC284605F00CFA6B
:104100000521402002F054FB0621402002F050FB24
:104110000321402002F04CFB0F21802002F048FBDD
:10412000052005F0F9F90F21002002F07DFC0E2199
:10413000802002F079FC284605F0EEF90F210020DE
:1041400002F036FB0E21802002F06EFCB7E02078F2
:1041500001283AD120700521402002F065FC06219B
:10416000402002F061FC0F21002002F05DFC0E21D6
:10417000802002F059FC284605F0CEF905214020A8
:1041800002F016FB0621402002F012FB0F21002056
:1041900002F00EFB0E21802002F00AFB052005F044
:1041A000BBF90321402002F03FFC0F21802002F0E8
:1041B0003BFC284605F0B0F90321402002F0F8FA54
:1041C0000F21802002F030FC79E0207802283BD1DA
:1041D000032020700521402002F026FC062140200B
:1041E00002F022FC0F21002002F01EFC0E21802094
:1041F00002F01AFC284605F08FF90521402002F054
:10420000D7FA0621402002F0D3FA0F21002002F055
:10421000CFFA0E21802002F0CBFA052005F07CF9C0
:104220000321402002F000FC0F21802002F0FCFB63
:10423000284605F071F90321402002F0B9FA0F2158
:10424000802002F0F1FB3AE001202070052140209F
:1042500002F0EAFB0621402002F0E6FB03214020A9
:1042600002F0E2FB0F21802002F0DEFB284605F081
:1042700053F90521402002F09BFA0621402002F06C
:1042800097FA0321402002F093FA0F21802002F0D8
:104290008FFA052005F040F90F21002002F0C4FB41
:1042A0000E21802002F0C0FB284605F035F90F21D1
:1042B000002002F07DFA0E21802002F0B5FB70BDD7
:1042C00070B505460C46207800282BD101202070BF
:1042D0000521402002F0A8FB0621402002F0A4FBAB
:1042E000284605F019F90521402002F061FA06215F
:1042F000402002F05DFA052005F00EF9042140206F
:1043000002F092FB0721402002F08EFB284605F0C8
:1043100003F90421402002F04BFA0721402002F06B
:1043200047FA88E0207801282BD102202070042150
:10433000402002F079FB0721402002F075FB28465F
:1043400005F0EAF80421402002F032FA072140206B
:1043500002F02EFA052005F0DFF80521402002F0DA
:1043600063FB0621402002F05FFB284605F0D4F8ED
:104370000521402002F01CFA0621402002F018FA24
:1043800059E0207802282BD10320207004214020FE
:1043900002F04AFB0721402002F046FB284605F0C8
:1043A000BBF80421402002F003FA0721402002F06C
:1043B000FFF9052005F0B0F80521402002F034FB9C
:1043C0000621402002F030FB284605F0A5F8052123
:1043D000402002F0EDF90621402002F0E9F92AE040
:1043E000002020700521402002F01EFB0621402005
:1043F00002F01AFB284605F08FF80521402002F054
:10440000D7F90621402002F0D3F9052005F084F801
:104410000421402002F008FB0721402002F004FBA9
:10442000284605F079F80421402002F0C1F907215F
:10443000402002F0BDF970BD10B5044605214020B2
:1044400002F0F2FA0621402002F0EEFA03214020A9
:1044500002F0EAFA0F21802002F0E6FA204605F089
:104460005BF80521402002F0A3F90621402002F06C
:104470009FF90321402002F09BF90F21802002F0D8
:1044800097F910BD10B504460521402002F0CCFA82
:104490000621402002F0C8FA0E21802002F0C4FA62
:1044A0000F21002002F0C0FA204605F035F8052162
:1044B000402002F07DF90621402002F079F90E211A
:1044C000802002F075F90F21002002F071F910BD73
:1044D00070B505460C46207800283BD1012020709D
:1044E0000521402002F0A0FA0F21802002F09CFA62
:1044F0000321402002F098FA0621402002F094FAAD
:10450000284605F009F80521402002F051F90F2155
:10451000802002F04DF90321402002F049F90621E4
:10452000402002F045F9052004F0F6FF0F2100209D
:1045300002F07AFA0721402002F076FA284604F0C9
:10454000EBFF0F21002002F033F90721402002F099
:104550002FF979E0207801283BD102202070052135
:10456000402002F061FA0F21802002F05DFA0F2155
:10457000002002F059FA0721402002F055FA28469F
:1045800004F0CAFF0521402002F012F90F2180201B
:1045900002F00EF90F21002002F00AF90721402055
:1045A00002F006F9052004F0B7FF0321402002F0D5
:1045B0003BFA0621402002F037FA284604F0ACFF0F
:1045C0000321402002F0F4F80621402002F0F0F828
:1045D0003AE0032020700521402002F025FA0F2147
:1045E000802002F021FA0321402002F01DFA06216A
:1045F000402002F019FA284604F08EFF05214020E1
:1046000002F0D6F80F21802002F0D2F803214020DA
:1046100002F0CEF80621402002F0CAF8052004F08E
:104620007BFF0F21002002F0FFF90721402002F05C
:10463000FBF9284604F070FF0F21002002F0B8F8C3
:104640000721402002F0B4F870BD70B505460C4655
:10465000207800282BD1012020700521402002F075
:10466000E3F90F21802002F0DFF9284604F054FF1F
:104670000521402002F09CF80F21802002F098F8DC
:10468000052004F049FF0421402002F0CDF90E215D
:10469000802002F0C9F9284604F03EFF04214020A2
:1046A00002F086F80E21802002F082F887E0207860
:1046B00001282AD120700421402002F0B5F90E21F2
:1046C000802002F0B1F9284604F026FF04214020A2
:1046D00002F06EF80E21802002F06AF8052004F046
:1046E0001BFF0521402002F09FF90F21802002F0DE
:1046F0009BF9284604F010FF0521402002F058F8ED
:104700000F21802002F054F859E0207802282BD1A4
:10471000012020700421402002F086F90E21802023
:1047200002F082F9284604F0F7FE0421402002F04E
:104730003FF80E21802002F03BF8052004F0ECFE4B
:104740000521402002F070F90F21802002F06CF961
:10475000284604F0E1FE0521402002F029F80F214F
:10476000802002F025F82AE0012020700521402059
:1047700002F05AF90F21802002F056F9284604F081
:10478000CBFE0521402002F013F80F21802002F01B
:104790000FF8052004F0C0FE0421402002F044F987
:1047A0000E21802002F040F9284604F0B5FE0421D5
:1047B000402001F0FDFF0E21802001F0F9FF70BDC7
:1047C00010B504460521402002F02EF90F2180206B
:1047D00002F02AF90321402002F026F906214020A8
:1047E00002F022F9204604F097FE0521402001F056
:1047F000DFFF0F21802001F0DBFF0321402001F0CB
:10480000D7FF0621402001F0D3FF10BD10B50446AC
:104810000521402002F008F90F21802002F004F960
:104820000721402002F000F90F21002002F0FCF8DF
:10483000204604F071FE0521402001F0B9FF0F2150
:10484000802001F0B5FF0721402001F0B1FF0F21CA
:10485000002001F0ADFF10BD70B505460C46207874
:1048600000283BD1012020700721402002F0DCF815
:104870000F21002002F0D8F80521402002F0D4F8E2
:104880000F21802002F0D0F8284604F045FE0721D1
:10489000402001F08DFF0F21002001F089FF05214C
:1048A000402001F085FF0F21802001F081FF0520CD
:1048B00004F032FE0421402002F0B6F80E218020E0
:1048C00002F0B2F8284604F027FE0421402002F04E
:1048D000ABF80E21802002F0A7F8B8E0207801287C
:1048E0003BD1022020700721402002F09DF80F21CB
:1048F000002002F099F80421402002F095F80E21E2
:10490000802002F091F8284604F006FE072140209E
:1049100001F04EFF0F21002001F04AFF042140204A
:1049200001F046FF0E21802001F042FF052004F037
:10493000F3FD0521402002F077F80F21802002F0DE
:1049400073F8284604F0E8FD0521402002F06CF8D9
:104950000F21802002F068F879E0207802283BD10E
:10496000032020700721402002F05EF80F21002074
:1049700002F05AF80421402002F056F80E2180205F
:1049800002F052F8284604F0C7FD0721402001F04C
:104990000FFF0F21002001F00BFF0421402001F048
:1049A00007FF0E21802001F003FF052004F0B4FD75
:1049B0000521402002F038F80F21802002F034F861
:1049C000284604F0A9FD0521402002F02DF80F2112
:1049D000802002F029F83AE00020207007214020D2
:1049E00002F022F80F21002002F01EF805214020DD
:1049F00002F01AF80F21802002F016F8284604F081
:104A00008BFD0721402001F0D3FE0F21002001F093
:104A1000CFFE0521402001F0CBFE0F21802001F0C8
:104A2000C7FE052004F078FD0421402001F0FCFFC2
:104A30000E21802001F0F8FF284604F06DFD0421CE
:104A4000402001F0F1FF0E21802001F0EDFF70BD4C
:104A500010B504460721402001F0E6FF0F21002099
:104A600001F0E2FF204604F057FD0721402001F04D
:104A70009FFE0F21002001F09BFE10BD70B5054682
:104A80000C46207800282BD10120207007214020DF
:104A900001F0CAFF0F21002001F0C6FF284604F0F4
:104AA0003BFD0721402001F083FE0F21002001F093
:104AB0007FFE052004F030FD0621402001F0B4FF08
:104AC0000321402001F0B0FF284604F025FD062117
:104AD000402001F06DFE0321402001F069FE88E0D6
:104AE000207801282BD1022020700621402001F0DF
:104AF0009BFF0321402001F097FF284604F00CFDA6
:104B00000621402001F054FE0321402001F050FE18
:104B1000052004F001FD0721402001F085FF0F2151
:104B2000002001F081FF284604F0F6FC0721402018
:104B300001F03EFE0F21002001F03AFE59E02078FE
:104B400002282BD1032020700721402001F06CFFA8
:104B50000F21002001F068FF284604F0DDFC07214A
:104B6000402001F025FE0F21002001F021FE05204C
:104B700004F0D2FC0621402001F056FF0321402022
:104B800001F052FF284604F0C7FC0621402001F046
:104B90000FFE0321402001F00BFE2AE000202070D0
:104BA0000721402001F040FF0F21002001F03CFFD1
:104BB000284604F0B1FC0721402001F0F9FD0F2147
:104BC000002001F0F5FD052004F0A6FC06214020A0
:104BD00001F02AFF0321402001F026FF284604F0BF
:104BE0009BFC0621402001F0E3FD0321402001F061
:104BF000DFFD70BD10B504460721402001F014FF11
:104C00000F21002001F010FF0521402001F00CFFD2
:104C10000F21802001F008FF204604F07DFC0721D1
:104C2000402001F0C5FD0F21002001F0C1FD05214C
:104C3000402001F0BDFD0F21802001F0B9FD10BD25
:104C400010B504460721402001F0EEFE0F210020A0
:104C500001F0EAFE0E21802001F0E6FE0421402052
:104C600001F0E2FE204604F057FC0721402001F04D
:104C70009FFD0F21002001F09BFD0E21802001F0FF
:104C800097FD0421402001F093FD10BD70B505464D
:104C90000C46207800283BD10120207007214020BD
:104CA00001F0C2FE0421402001F0BEFE032140209D
:104CB00001F0BAFE0F21802001F0B6FE284604F074
:104CC0002BFC0721402001F073FD0421402001F05E
:104CD0006FFD0321402001F06BFD0F21802001F0CA
:104CE00067FD052004F018FC0F21002001F09CFE58
:104CF0000E21802001F098FE284604F00DFC0F21C3
:104D0000002001F055FD0E21802001F051FDB8E09A
:104D1000207801283BD1022020700721402001F09B
:104D200083FE0421402001F07FFE0321402001F09A
:104D30007BFE0F21802001F077FE284604F0ECFB7B
:104D40000721402001F034FD0421402001F030FD16
:104D50000321402001F02CFD0F21802001F028FDCF
:104D6000052004F0D9FB0F21002001F05DFE0E218B
:104D7000802001F059FE284604F0CEFB0F210020D0
:104D800001F016FD0E21802001F012FD79E020785F
:104D900002283BD1032020700721402001F044FE6F
:104DA0000421402001F040FE0F21002001F03CFED4
:104DB0000E21802001F038FE284604F0ADFB0721CB
:104DC000402001F0F5FC0421402001F0F1FC0F210E
:104DD000002001F0EDFC0E21802001F0E9FC05200F
:104DE00004F09AFB0321402001F01EFE0F218020D9
:104DF00001F01AFE284604F08FFB0321402001F049
:104E0000D7FC0F21802001F0D3FC3AE00020207075
:104E10000721402001F008FE0421402001F004FE9B
:104E20000321402001F000FE0F21802001F0FCFD55
:104E3000284604F071FB0721402001F0B9FC042151
:104E4000402001F0B5FC0321402001F0B1FC0F210E
:104E5000802001F0ADFC052004F05EFB0F21002056
:104E600001F0E2FD0E21802001F0DEFD284604F075
:104E700053FB0F21002001F09BFC0E21802001F04C
:104E800097FC70BD10B504460721402001F0CCFD11
:104E90000421402001F0C8FD204604F03DFB07211D
:104EA000402001F085FC0421402001F081FC10BD70
:104EB00070B505460C46207800282BD101202070C3
:104EC0000721402001F0B0FD0421402001F0ACFD9D
:104ED000284604F021FB0721402001F069FC042151
:104EE000402001F065FC052004F016FB062140205F
:104EF00001F09AFD0521402001F096FD284604F0BE
:104F00000BFB0621402001F053FC0521402001F05D
:104F10004FFC88E0207801282BD102202070062148
:104F2000402001F081FD0521402001F07DFD284653
:104F300004F0F2FA0621402001F03AFC052140205D
:104F400001F036FC052004F0E7FA0721402001F0CB
:104F50006BFD0421402001F067FD284604F0DCFAD7
:104F60000721402001F024FC0421402001F020FC16
:104F700059E0207802282BD1032020700621402000
:104F800001F052FD0521402001F04EFD284604F0BD
:104F9000C3FA0421402001F00BFC0521402001F060
:104FA00007FC052004F0B8FA0721402001F03CFD81
:104FB0000421402001F038FD284604F0ADFA072115
:104FC000402001F0F5FB0421402001F0F1FB2AE034
:104FD000002020700721402001F026FD0421402000
:104FE00001F022FD284604F097FA0721402001F045
:104FF000DFFB0421402001F0DBFB052004F08CFAEC
:105000000621402001F010FD0521402001F00CFD9B
:10501000284604F081FA0621402001F0C9FB052151
:10502000402001F0C5FB70BD10B5044607214020AB
:1050300001F0FAFC0421402001F0F6FC032140209D
:1050400001F0F2FC0F21802001F0EEFC204604F07C
:1050500063FA0721402001F0ABFB0421402001F05E
:10506000A7FB0321402001F0A3FB0F21802001F0CA
:105070009FFB10BD10B504460721402001F0D4FC71
:105080000421402001F0D0FC0E21802001F0CCFC56
:105090000F21002001F0C8FC204604F03DFA072152
:1050A000402001F085FB0421402001F081FB0E210E
:1050B000802001F07DFB0F21002001F079FB10BD65
:1050C00070B505460C46207800283BD101202070A1
:1050D0000721402001F0A8FC0F21802001F0A4FC52
:1050E0000321402001F0A0FC0421402001F09CFCA1
:1050F000284604F011FA0721402001F059FB0F2146
:10510000802001F055FB0321402001F051FB0421D8
:10511000402001F04DFB052004F0FEF90F21002096
:1051200001F082FC0521402001F07EFC284604F0BD
:10513000F3F90F21002001F03BFB0521402001F095
:1051400037FBB8E0207801283BD1022020700721EE
:10515000402001F069FC0F21802001F065FC0F2147
:10516000002001F061FC0521402001F05DFC284693
:1051700004F0D2F90721402001F01AFB0F21802012
:1051800001F016FB0F21002001F012FB0521402049
:1051900001F00EFB052004F0BFF90321402001F0CF
:1051A00043FC0421402001F03FFC284604F0B4F900
:1051B0000321402001F0FCFA0421402001F0F8FA1C
:1051C00079E0207802283BD101202070072140207F
:1051D00001F02AFC0F21802001F026FC0F21002085
:1051E00001F022FC0521402001F01EFC284604F0BD
:1051F00093F90721402001F0DBFA0F21802001F014
:10520000D7FA0F21002001F0D3FA0521402001F048
:10521000CFFA052004F080F90321402001F004FCBE
:105220000421402001F000FC284604F075F9032118
:10523000402001F0BDFA0421402001F0B9FA3AE023
:10524000002020700721402001F0EEFB0F2180207C
:1052500001F0EAFB0321402001F0E6FB042140209D
:1052600001F0E2FB284604F057F90721402001F045
:105270009FFA0F21802001F09BFA0321402001F0CA
:1052800097FA0421402001F093FA052004F044F934
:105290000F21002001F0C8FB0521402001F0C4FBD4
:1052A000284604F039F90F21002001F081FA052188
:1052B000402001F07DFA70BD10B504460721402062
:1052C00001F0B2FB0F21802001F0AEFB204604F07C
:1052D00023F90721402001F06BFA0F21802001F013
:1052E00067FA10BD70B505460C46207800282BD112
:1052F000012020700721402001F096FB0F21802023
:1053000001F092FB284604F007F90721402001F044
:105310004FFA0F21802001F04BFA052004F0FCF831
:105320000621402001F080FB0E21802001F07CFB53
:10533000284604F0F1F80621402001F039FA0E2148
:10534000802001F035FA88E0207801282BD1022056
:1053500020700621402001F067FB0E21802001F023
:1053600063FB284604F0D8F80621402001F020FA1B
:105370000E21802001F01CFA052004F0CDF8072151
:10538000402001F051FB0F21802001F04DFB284609
:1053900004F0C2F80721402001F00AFA0F21802012
:1053A00001F006FA59E0207802282BD10320207062
:1053B0000621402001F038FB0E21802001F034FB53
:1053C000284604F0A9F80621402001F0F1F90E2149
:1053D000802001F0EDF9052004F09EF8072140201F
:1053E00001F022FB0F21802001F01EFB284604F073
:1053F00093F80721402001F0DBF90F21802001F014
:10540000D7F92AE0002020700721402001F00CFB92
:105410000F21802001F008FB284604F07DF80721C9
:10542000402001F0C5F90F21802001F0C1F90520CD
:1054300004F072F80621402001F0F6FA0E218020D7
:1054400001F0F2FA284604F067F80621402001F046
:10545000AFF90E21802001F0ABF970BD10B5044604
:105460000721402001F0E0FA0F21802001F0DCFA52
:105470000321402001F0D8FA0421402001F0D4FAA1
:10548000204604F049F80721402001F091F90F214E
:10549000802001F08DF90321402001F089F90421D9
:1054A000402001F085F910BD10B5044607214020C9
:1054B00001F0BAFA0F21802001F0B6FA0521402050
:1054C00001F0B2FA0F21002001F0AEFA204604F0FC
:1054D00023F80721402001F06BF90F21802001F013
:1054E00067F90521402001F063F90F21002001F048
:1054F0005FF910BD70B505460C46207800283BD1F9
:10550000012020700E21802001F08EFA0F21002052
:1055100001F08AFA0521402001F086FA0621402098
:1055200001F082FA284603F0F7FF0E21802001F0F7
:105530003FF90F21002001F03BF90521402001F047
:1055400037F90621402001F033F9052003F0E4FF8C
:105550000421402001F068FA0721402001F064FA9C
:10556000284603F0D9FF0421402001F021F907214A
:10557000402001F01DF9B8E0207801283BD102203D
:1055800020700E21802001F04FFA0F21002001F041
:105590004BFA0421402001F047FA0721402001F096
:1055A00043FA284603F0B8FF0E21802001F000F9ED
:1055B0000F21002001F0FCF80421402001F0F8F850
:1055C0000721402001F0F4F8052003F0A5FF052194
:1055D000402001F029FA0621402001F025FA284652
:1055E00003F09AFF0521402001F0E2F80621402057
:1055F00001F0DEF879E0207802283BD1032020700A
:105600000E21802001F010FA0F21002001F00CFA89
:105610000421402001F008FA0721402001F004FA9B
:10562000284603F079FF0E21802001F0C1F80F21F8
:10563000002001F0BDF80421402001F0B9F8072155
:10564000402001F0B5F8052003F066FF0521402059
:1056500001F0EAF90621402001F0E6F9284603F0BE
:105660005BFF0521402001F0A3F80621402001F056
:105670009FF83AE0002020700E21802001F0D4F93C
:105680000F21002001F0D0F90521402001F0CCF9D4
:105690000621402001F0C8F9284603F03DFF0E2105
:1056A000802001F085F80F21002001F081F805210C
:1056B000402001F07DF80621402001F079F8052016
:1056C00003F02AFF0421402001F0AEF90721402019
:1056D00001F0AAF9284603F01FFF0421402001F041
:1056E00067F80721402001F063F870BD70B50546EA
:1056F0000C46207800282BD1012020700E2180201C
:1057000001F092F90F21002001F08EF9284603F0F4
:1057100003FF0E21802001F04BF80F21002001F043
:1057200047F8052003F0F8FE0F21802001F07CF9F6
:105730000321402001F078F9284603F0EDFE0F2107
:10574000802001F035F80321402001F031F888E095
:10575000207801282BD1022020700F21802001F019
:1057600063F90321402001F05FF9284603F0D4FEDD
:105770000F21802001F01CF80321402001F018F8CF
:10578000052003F0C9FE0E21802001F04DF90F2104
:10579000002001F049F9284603F0BEFE0E218020CA
:1057A00001F006F80F21002001F002F859E02078FE
:1057B00002282BD1032020700F21802001F034F922
:1057C0000321402001F030F9284603F0A5FE0F2107
:1057D000802000F0EDFF0321402000F0E9FF0520CC
:1057E00003F09AFE0E21802001F01EF90F21002007
:1057F00001F01AF9284603F08FFE0E21802000F0F8
:10580000D7FF0F21002000F0D3FF2AE000202070F6
:105810000E21802001F008F90F21002001F004F989
:10582000284603F079FE0E21802000F0C1FF0F21F1
:10583000002000F0BDFF052003F06EFE0F21802048
:1058400001F0F2F80321402001F0EEF8284603F0C1
:1058500063FE0F21802000F0ABFF0321402000F009
:10586000A7FF70BD10B504460E21802001F0DCF8C2
:105870000F21002001F0D8F80521402001F0D4F8D4
:105880000621402001F0D0F8204603F045FE0E210D
:10589000802000F08DFF0F21002000F089FF0521FE
:1058A000402000F085FF0621402001F0BDF810BD2A
:1058B00010B504460E21802001F0B6F80F2100201B
:1058C00001F0B2F80721402001F0AEF80421402099
:1058D00001F0AAF8204603F01FFE0E21802000F000
:1058E00067FF0F21002000F063FF0721402000F038
:1058F0005FFF0421402000F05BFF10BD70B505463E
:105900000C46207800282BD1012020700E21802009
:1059100001F08AF80421402001F086F8284603F0BF
:10592000FBFD0E21802000F043FF0421402000F009
:105930003FFF052003F0F0FD0F21802001F074F8F7
:105940000521402001F070F8284603F0E5FD0F2105
:10595000802000F02DFF0521402000F029FF88E085
:10596000207801282BD1022020700F21802001F007
:105970005BF80521402001F057F8284603F0CCFDE4
:105980000F21802000F014FF0521402000F010FFBF
:10599000052003F0C1FD0E21802001F045F804210F
:1059A000402001F041F8284603F0B6FD0E2180208A
:1059B00000F0FEFE0421402000F0FAFE59E02078BD
:1059C00002282BD1032020700F21802001F02CF819
:1059D0000521402001F028F8284603F09DFD0F2105
:1059E000802000F0E5FE0521402000F0E1FE0520CA
:1059F00003F092FD0E21802001F016F804214020D2
:105A000001F012F8284603F087FD0E21802000F0F7
:105A1000CFFE0421402000F0CBFE2AE000202070C1
:105A20000E21802001F000F80421402000F0FCFF4E
:105A3000284603F071FD0E21802000F0B9FE0421FC
:105A4000402000F0B5FE052003F066FD0F21802008
:105A500000F0EAFF0521402000F0E6FF284603F0B1
:105A60005BFD0F21802000F0A3FE0521402000F007
:105A70009FFE70BD70B505460C46207800282BD1DE
:105A8000012020700E21802000F0CEFF0621402052
:105A900000F0CAFF284603F03FFD0E21802000F0F1
:105AA00087FE0621402000F083FE052003F034FD30
:105AB0000F21802000F0B8FF0721402000F0B4FF44
:105AC000284603F029FD0F21802000F071FE0721F8
:105AD000402000F06DFE88E0207801282BD10220C4
